:020000040000FA
:1000000000002AEF0BF0FFFF1CBE40EF09F0700E5E
:1000100066EF03F0FFFFFFFFFAD741435420414C46
:10002000455254004F4244494920746F2052533284
:10003000333220496E7465727072657465720000A7
:100040004255464645522046554C4C004255532099
:10005000425553590000425553204552524F5200C9
:1000600042555320494E49543A20000043414E2006
:100070004552524F52003C44415441204552524F48
:100080005200454C4D3332372076312E35003F003B
:100090004642204552524F520000554E41424C4577
:1000A00020544F20434F4E4E454354004E4F204462
:1000B000415441004F4B00003E00534541524348DC
:1000C000494E472E2E2E000053544F5050454400A9
:1000D0003E4154204D4100003C5258204552524F61
:1000E00052004C562052455345540000FFFFFFFF7D
:1000F000303132333435363738394142434445465E
:10010000F9265A00D16BFF00490015EF0CF04400AE
:10011000D9EF01F00000414C1788F3D0415250EF65
:1001200006F0424455EF06F0424962EF06F04353B1
:1001300030EF07F04430189AE4D04431188AE1D007
:100140004450A0EF07F045301794DBD045311784B9
:10015000D8D04645D26BD5D0464982EF08F048301A
:100160001792CFD048311782CCD04A453594C9D0A8
:100170004A533584C6D04B57DEEF08F04C30179EFB
:10018000C0D04C31178EBDD04C50FCEF08F04D3034
:10019000179AB7D04D31178AB4D04D414DEF09F0C1
:1001A0004E4C1798AED0504370EF09F0523017966E
:1001B000A8D052311786A5D0524437EF0AF05256D4
:1001C00045EF0AF0533018809CD05331189099D0E5
:1001D0005349B7EF0AF05353108A93D05630359AEB
:1001E00090D05631358A8DD0575328EF0BF04031DF
:1001F0001EEF06F0403221EF06F00000FFFFFFFF88
:10020000F92641540FEF06F04345BBEF06F0444D8D
:1002100091EF07F044500DEF08F04947C2EF08F0A6
:100220004B57D5EF08F05050FAEF09F052543DEF1C
:100230000AF05350D7EF0AF05450D7EF0AF00000FD
:100240004341AEEF06F04346D6EF06F04350F9EFD8
:1002500006F0494286EF08F04946A4EF08F04D52F7
:100260005DEF09F04D5461EF09F05241BFEF0AF024
:100270005350EFEF0AF05441D3EF0AF05450EFEF30
:100280000AF0534497EF0AF05352BFEF0AF0535469
:10029000C3EF0AF05357C9EF0AF0000042526CEF67
:1002A00006F04346C0EF06F0434DE3EF06F043454A
:1002B0009BEF0AF0494996EF08F05348ACEF0AF07B
:1002C0000000435201EF07F0435659EF07F04D503D
:1002D00051EF09F0504267EF09F0505073EF09F009
:1002E000000050507DEF09F000004D5056EF09F02E
:1002F000505089EF09F05348A3EF0AF00000FFFFC8
:10030000F9264FEF07F04346C9EF06F0434DECEFF7
:1003100006F00000435212EF07F00000403339EFBF
:1003200006F000004155544F0000534145204A312A
:100330003835302050574D00534145204A3138352B
:1003400030205650570049534F20393134312D3227
:10035000000049534F2031343233302D3420284BA4
:100360005750203542415544290049534F203134DC
:100370003233302D3420284B5750204641535429D6
:10038000000049534F2031353736352D3400534165
:1003900045204A31393339005553455231005553C0
:1003A00045523200202843414E200000455252372A
:1003B000310017AE03D00FEC05F0A3D70FEC05F01A
:1003C00092EC03F09ED72F6A306A030E7A6FE80E24
:1003D0007B6F71EC05F07DC044F0000901E0FF0C7B
:1003E0007A6F640E7B6F71EC05F07DC030F044C015
:1003F0002FF07D6B0A0E7D2B325EFDE232267D05ED
:10040000316E000C3F6E3F6630D1120072A39EAA7F
:1004100032D072B131D0206A8A98AB50060B2DE1F0
:10042000E9CF41F074C0E9FFAE50EF6E17A421D0C0
:10043000E66EE290E150D9181BE08B51EF1822E0F4
:10044000200EEF6422D072AF08D0710EE9600CD09C
:10045000E928746F41C0E9FF000CB00E726FE92803
:10046000746F41C0E9FF000C728D41C0E9FF000CC0
:10047000C5D100D0E2D700D0ECD0AB98AE5000D0C0
:10048000AB88A8D072811CAE8B8A41C0E9FFA3EF74
:1004900005F094EC05F081BE1200680E936EFC0E20
:1004A0008A6E9FEC05F081BE1200E80E936ECD6956
:1004B000300E416E0C0E0109746E7F84426A436AED
:1004C0007368550E7E6EAA0E7E6E7F82432EFED717
:1004D000422E03D0810ED16FFF007FB2F7D7742A6E
:1004E000742A412EEBD77F943C0E416EE80E936E3A
:1004F000414E19D0EC0E8A6E95EC05F0FC0E8A6E1A
:1005000093EC05F0680E936EFC0E8A6E9FEC05F07E
:1005100081AEECD7E80E936E080E416E95EC05F0B7
:10052000412EFCD71200640EF8D7426E470E42608F
:10053000FF0C400E426402D0370E07D03A0E4260E4
:10054000FF0C2F0E4264FF0C300E425C12000000C4
:100550001BAE33D0030E006412D011B80ED015506C
:10056000026204D0800E11BC100E30D00318100EA1
:10057000D8B411AA800E1B6E2CD0100E24D017A256
:1005800020D0006011D000A208D015500218600ED3
:10059000D8B411AC800E1B6E1200002C0AD0800E55
:1005A00011B8100E1B6E120015500318700ED8B43F
:1005B00011AA800E1B6E000012001B50A4EC05F067
:1005C00001D0800E0000000000D00000000000D02C
:1005D0001B6E12001A66D6BE22D01ABE10D01D2A7B
:1005E0001DB68A8E1E2A1EB68A8C1F2A1FB68A8ABC
:1005F000202A20B68A8882A8198E1A6A12002B2E09
:100600000DD0050E2B6E2A2A86512A602C8C212AA9
:100610007F5121600F82198A1A9E1200F5D782B885
:100620009EBA198ED6BE1A660AD01A683C663C0677
:10063000000000D0000082B89EBA198E1200E1506E
:10064000D9629EA8F7D71F6A8A9ADE50DA90AD6EFB
:100650001200A3EC05F0BED700D8AB50060BD8A40F
:10066000AB98D8A4AB88AE501200FC6A010E3F6272
:1006700002D01AEF0CF01998020E3F6202D09A0EC7
:1006800020D0030E3F6202D0900E1BD0040E3F62BA
:1006900002D04C0E16D0050E3F6202D0560E11D07D
:1006A000060E3F6202D06C0E0CD0FF0E3F6202D0ED
:1006B000DC0E07D0080E3F6206D011BE1AEF0CF018
:1006C000AC0E16EF0CF0740E3F62F2D73F6EFC6A70
:1006D000E1CFD9FF8A9A17D88B5114D88A5117BE07
:1006E00011D8450E0FD8520E0DD8520E0BD8F76AFE
:1006F000F86A3F380ED806D83F500BD803D88A8AFC
:1007000018EF0CF0AD6E416A9FEC05F0412EFCD75E
:100710001200F009F66E0800F5501200FADF69D0F9
:100720003A0E67D08B5165D817AE12008A5161D04E
:10073000F66E0900F550D8B412005BD89EA8F9D720
:100740001F6A8A9ADE50DA90AD6EF3D718A02DD0CA
:100750002CD84ED0A2EC05F000D00000A2EC05F0A1
:1007600039D7E150D9184AE0000012001B9C72B73B
:10077000F3D70138F009F66E0800F550E66EE29006
:10078000E150D9183BE00000015027D01B9A72B706
:10079000E4D70238F009F66E0800F550E66EE290F4
:1007A000E150D9182BE0025019D00E6E08D01BBEB4
:1007B000D1D71BBCDBD71BBAE9D71BA8CDD71B9859
:1007C00072B7CCD70E38F009F66E0800F550E66E19
:1007D000E290E150D91812E00E500000F009F66ED8
:1007E0000800F550E66EE290E150D96218B0B9D732
:1007F000200EE66EE290E150D9621200FC6AFC0E17
:100800008A16E106020EE26E3EA006D06E50E00BA4
:10081000600AD8B467EC1EF01AEC08F0E7508B19A8
:1008200002E0E12AE2907EDF400E16EF0CF018A005
:10083000DFD71200DEDF74D7746E7F9E7F9C7F80CF
:1008400073501200BA0E74DF6DD74FD8D8B4010FB1
:10085000C36F0C0EC361C36FD2BF33AA04D0050EA1
:10086000C361C36F1200D2BD33A81200F8D73D6A2E
:10087000746A7F9E7F9C080E416E3D427F80736646
:100880003D8E742A412EF9D73E9E3DBE3E8E3D9E42
:100890007F8073CFC8F0742A00007F8073CFC9F0C7
:1008A000742A00007F8073CFCAF0742A00007F8012
:1008B00073CFCBF00C0E3D6412003D6A3E8E1200E9
:1008C000CD690C0E63D0CD690E0E60D0CD69100ECF
:1008D0005DD0320ECD6F120E59D0010ECD6F140EB9
:1008E00055D0F10ECD6F180E51D0090ECD6F1A0EE6
:1008F0004DD0CD6B1E0E4AD00A0ECD6F200E46D0C5
:10090000680ECD6F240E42D00D0ECD6F260E3ED058
:10091000CD6B2E0E3BD0320ECD6F320E37D00A0E7D
:10092000CD6F360E33D0CD69380E30D0920ECD6FEC
:100930003A0E2CD0CD6B3C0E29D0280ECD6F3E0E3A
:1009400025D0CD6B540E22D0CD6B560E1FD0000E8D
:10095000CD6F580E1BD0CD695E0E18D0380ECD6FFE
:10096000600E14D0020ECD6F620E10D0E00ECD6F6F
:10097000640E0CD0040ECD6F660E08D0800ECD6FC5
:10098000680E04D00A0ECD6F6A0E00D001091CEC6F
:1009900004F002E0CD51120074041CEF04F0010ECB
:1009A000C26EA5EC05F0C282416A14DEC2A207D075
:1009B000412EFBD7000EC26E760E66EF03F01FEFDE
:1009C00020F000003DC044F03EBE448E37EC04F001
:1009D0003EBE3D8E3D50441811E07F84746A080E7F
:1009E000416EFF0E44A0000E0BD84442412EFAD7B0
:1009F0007F943E9E44BE3E8E44C03DF03D9E12001C
:100A0000736E550E7E6EAA0E7E6E7F820C0E81D89E
:100A1000E1DD0FB25FD57FB2FBD7742AFF0C8C519A
:100A2000E00B176E66EC04F0D8B4178817868DBDFE
:100A3000178463EC04F0D8B41782A1EC04F0D8B4A6
:100A40001780186AA4EC04F0D8B4188E88EC04F06F
:100A5000D8B4188CABEC04F0D8B4188AAEEC04F01F
:100A6000336E6DEC04F0416E410603E0412E02D07E
:100A7000188618883F6A836B0F0ECE6F196A1B6A3F
:100A80001B8E116A2D6A8DBF2D82330EBF6F346AA3
:100A9000356AA66BA7EC04F0956F3EAC09D03DC05B
:100AA00044F037EC04F044503D1807E0F5EC0FF04B
:100AB0003E6A37EC04F06FEC13F00F6A106A2C9A60
:100AC000FFEC0FF069EC04F0806F7E6F8FEC04F0A8
:100AD000C26F96EC04F0866F12003F6E3F66060010
:100AE00012007C6B7D6B7B51325E7A51315A000E65
:100AF000305A2F5A06E37D2BD8B07C2BD8B0FF0C90
:100B0000F2D77B5132267A513122000E30222F2229
:100B1000000C7F6F216A0F921200F60EFADF5ADD89
:100B20000FA2FDD7120000D800D8426A436A422EB5
:100B3000FED7432EFCD7120004D004D801D000D831
:100B400002D001D801D000D8120044DD43DD42DDDF
:100B500041DD40DD3FDD3EDD3DD50000FF0FD8A487
:100B6000FDD71200906B8F6B460E416E426A32DDEC
:100B70008150080B8F190CE08F1B904B060C000066
:100B8000422EF6D7412EF3D7200E906502D0060CE8
:100B9000F6D7906B926B670E416E426A1BDD9169CE
:100BA00082A012D092B112D0904B020C6C0E92B770
:100BB000916190079281916B422EF2D7412EEED730
:100BC0000A0E906509D0020C92919297913D912B5B
:100BD0000F0E91619287F0D7906B926B670E416E0A
:100BE000426AF8DC916982B412D092A512D0904B7F
:100BF000010C090E92B9916190079295916B422E6A
:100C0000F2D7412EEED7160E9065050C010C928599
:100C10009299913D912B030E91619289F0D7310EFB
:100C2000656303D0189618883AD1320E656302D0F6
:100C30001886F9D778673AD1189831D1240E16EF73
:100C40000CF00AD8D8B432D14250F6DDF9EC03F0FA
:100C5000422A412EF9D721D10C0E416E6C0E426E04
:100C60004250EADDD8B41200422A700E4262F8D730
:100C70001200F2DFD8A41AD1000EEA6E650EE96EFA
:100C8000700E746E7F84EE50BBDE412EFCD76C0E6E
:100C9000746EFF0EB5DEB4DEB3DEB2DE7F94FFD03D
:100CA0001098349C349A3488FAD0000EEA6E000E04
:100CB000E96E0D0E416EEE50A6EC03F08BDC412E7A
:100CC000FAD7EBD03D52D8B4F1D0198C3BEC0FF0F1
:100CD0003F6E3F66CAD4E3D09DEC08F0416E540EDF
:100CE000656303D041C0CEF0DAD0440E72B96563BB
:100CF000DDD0070E4164DAD07DCF6BF0AFCF6CF062
:100D00006D69B40E98EC03F093D92CEC03F0CEC0CF
:100D100043F0426AEAEC02F09EAA0AD0206A8A985E
:100D20002DEC03F06DA18B6303D041C0CFF0B7D0A1
:100D3000EAEC02F0EAEC02F0422EECD7432EEAD7BE
:100D40006DA106D07D6A4104AF6E820E6D6BDAD75D
:100D50006BC07DFF6CC0AFFF1AEF0CF0460E6563F1
:100D600007D0300E666302D0179099D0310E6663BB
:100D70009DD0178094D0410E656398D018928FD083
:100D800091D83598A26BA36B5FD8070BA46F7951EC
:100D900009D088D835881F0BA26F79C0A3F07AC01C
:100DA000A4F07B51A56F348A348879D0430E6563F3
:100DB00007D0300E666302D0189E71D0310E666384
:100DC00075D0188E6CD06ED835989E6B9F6B3CD8C2
:100DD000070BA06F795109D065D835881F0B9E6F1E
:100DE00079C09FF07AC0A0F07B51A16F348C348819
:100DF00056D058D81F0E781778C02EF0348E34880D
:100E00004ED050D8F00BA00A51E135989E6BA26BE2
:100E10009F6BA36B070EA06F7815A46FA169795122
:100E2000348CC0D73FD810D80A0A40E135881F0E4D
:100E30009E6F9F69A069A1697915A26F7AC0A3F01E
:100E40007BC0A4F07C51ECD7040E416ED89078336F
:100E500079337A337B337C33412EF8D778511200C3
:100E60006E50E00B04E142CEB1F041CEB2F0540E30
:100E70001AEC04F0B15171AA04D04F0EF9EC03F052
:100E8000FF0EA6EC03F0EAEC02F0520E1AEC04F0AE
:100E9000B251A6EC03F0B16BB26B18EF0CF0B40ECC
:100EA00016EF0CF0785172B9120006008E0E16EF94
:100EB0000CF0F8DF0BE1796709D0060EC86FAE0EB3
:100EC000C96F020ECA6F6A0ECB6F1AD0CFEC04F056
:100ED000C4CFCAF0C3CFCBF079390F0B0A0D0F0E78
:100EE0007915F324C96F78390F0B0A0D0F0E781599
:100EF000F324640DF350C927F450D8B0010FC86F24
:100F00007F84080E746EC85100EC05F0C95100ECE6
:100F100005F0CA5100EC05F0CB5100EC05F07F94D0
:100F2000BED7310E6563C2D7FE0E396ECA0E3A6E59
:100F3000386A10EC11F097A5B9D7116AB4EF0EF02A
:100F4000030EF76E240E3D5225E03EAE07D098EC1E
:100F500003F02C0EF9EC03F0F8EC03F03DC041F087
:100F6000060E3D600BD0414E2A0E414E380E414ECA
:100F7000460E414E520E414E6A0E0CD0090E3D6493
:100F80000DD0415EAC0E414E8E0E414E980E414E3C
:100F90009E0E05D098EC03F0F76A7FD7820E98EC8E
:100FA00003F0A40E98EC03F0F76A10EC11F037AEE2
:100FB00005D0310EF9EC03F0310E04D0320EF9EC0D
:100FC00003F0390EF9EC03F02F0EF9EC03F02F6A61
:100FD000306AD8909631F40F326E316A010E3122A8
:100FE0007A6B96C07BF071EC05F07CC031F07DC06F
:100FF00032F0E3EC01F0306603D0316604D006D065
:1010000030508EEC03F031508EEC03F032508EEC09
:1010100003F0290EF9EC03F040D74E0E656325D29C
:10102000410E3EBEF9EC03F03D508EEC03F035D797
:1010300092EC03F0EAEC02F0E150D962FBD7120027
:1010400073AF13D24D0E666317D0070E60630DD2D7
:1010500079390F0B416E0DE0010E416205D035AEBE
:1010600004D235AC02D205D0020E4162FED135ACBD
:10107000FCD141C0A6F013D7480E66631ED0090EFE
:1010800060630ED0A76BA86B7939070BA96FF00EC0
:101090007A170F0E79157A11AA6FAA3B358EFFD6F3
:1010A0000E0E6063E2D179C0A7F07AC0A8F07BC0D1
:1010B000A9F07CC0AAF0358EF2D6440E6663D5D175
:1010C00060B1D3D1070E6065D0D19551AC6FAD6FD3
:1010D000AE6FAF6F0F0E60617DC0AFF00D0E60613F
:1010E0007CC0AEF00B0E60617BC0ADF0090E60619C
:1010F0007AC0ACF079C0ABF0060E605DB06FB04363
:10110000358CCDD6050E3D62B0D137D2480E78630E
:1011100002D02D8004D0960E786303D02D902D82BE
:10112000A0D1100E7863A1D12D929BD1410E6563A1
:101130009CD199D902D8BF6F94D17839F00B456E04
:1011400079390F0B45101200520E65638ED1310EA6
:10115000666302D0109285D1300E666303D0108290
:1011600010907FD1320E666303D01082108079D147
:10117000480E666302D0109474D1530E666375D125
:1011800010846FD14E0E656370D14F0EF9EC03F0F1
:1011900082A804D04E0EF9EC03F02CD0460EF9ECE8
:1011A00003F0460EF9EC03F025D0310E656302D052
:1011B0002D9C57D1786759D12D8C53D1310E1AEC13
:1011C00004F08DA10AD0C051A6EC03F0320E1AEC47
:1011D00004F0C151A6EC03F00DD094EC0AF094ECAD
:1011E0000AF0F8EC03F0320E1AEC04F094EC0AF07A
:1011F00094EC0AF018EF0CF01CAE37D1B40E98EC5A
:1012000003F016DF0ED092EC03F04C0EF9EC03F075
:10121000500EF9EC03F01D0E98EC03F009DF8DEC95
:1012200005F08DEC05F0F5EC0FF08992F40E816E6F
:101230002CEC03F0820E9EBA66EF03F0A7829D8A23
:10124000F28E020ED36E8B8A1CBC8B9A82A804D0BD
:1012500019B60BD082B8FED7416A82B8416A412ADA
:10126000490E4164FAD782A8FED7416A160E1CA225
:10127000050E426E82A8F9D7412E01D0422EFAD730
:10128000F29E9D9AA792D36AD3A6FED78B9A1CBCD6
:101290008B8A8DEC05F028EF0BF0116A1188B4EF02
:1012A0000EF0E1D8396E79C03AF042D6DCD8386E0B
:1012B00079C039F07AC03AF03CD6D5D8156E400ED8
:1012C00003D0D1D8156E200E116EB4EF0EF0CBD82E
:1012D000410E7961CAD078C09AF079C09BF0C1D034
:1012E000F5EC0FF0BED06DD8CC814F0E676381D086
:1012F0004E0E68637ED0CD6B3FD063D8CC814F0E4D
:10130000676377D0460E686374D0696372D0CD6925
:1013100033D057D8CC496DD0530E67636AD0560E80
:10132000686367D06951F1EC09F0CD6FCD3B6A512C
:10133000F1EC09F0CD13CC41040A02E1030E1AD0FE
:10134000CC410C0A04E1070ECD6553D015D0CC4139
:101350002B0A06E0CC412D0A03E0CC412F0A04E120
:10136000CD5147E0410E06D0CC41070A05E1CD51F1
:1013700040E00D0ECD613DD0CC290EE00C0ECC2509
:10138000CC6F1CEC04F0CD19D8B46BD07F84CD5158
:1013900000EC05F07F9465D0300E416E0C0E010913
:1013A000746E7F841CEC04F0CD1904E0CD5100EC88
:1013B00005F001D0742A7428746E412EF3D77F94FF
:1013C00050D06551F1EC09F0CC6FCC3B6651F1EC9B
:1013D00009F0CC13CC491200300ECC6109D0CC47B7
:1013E000120095EC02F0426E424802D042501200C8
:1013F000FC6A3BD0530E656338D00C0ECC6F416A4B
:1014000019DE040E426E040E436E300E416020D091
:1014100041388EEC03F041508EEC03F090EC03F079
:10142000CC511CEC04F0A6EC03F0CC2BCC511CEC02
:1014300004F0D8A4460ED8B44E0EF9EC03F0CC2B31
:10144000412A430605E0F8EC03F0F8EC03F0DDD7A1
:1014500092EC03F0300E41601AEF0CF0422ED3D71D
:10146000CFD74FEF07F052EF07F056EF07F07C0EA3
:101470001CEC04F0D5EC03F0DBD1520E6563F5D71C
:101480003EBC3EA0F2D7416ABCD2CFEC04F0D8906B
:10149000CA31316ECB31326E2F6A306AC350C90304
:1014A000F3503226F4503122C450C903F350312690
:1014B000F4503022C350C803F3503126F450302288
:1014C000C450C803F3503026F4502F22CAC07AF01B
:1014D000CBC07BF071EC05F000091FE1270E7C61A9
:1014E0001CD0050E7D25326E000E7C21316EE3ECA2
:1014F00001F0000912E12F502F668EEC03F03050FE
:101500008EEC03F02E0EF9EC03F031508EEC03F06C
:10151000560EF9EC03F018EF0CF006D805D82E0E95
:10152000F9EC03F001D8F4D72D0EF9EF03F09BDFAF
:10153000CD6F7C0E25D797DF410E656396D7FDDD15
:10154000166E18828ED78FDF126E79C013F07AC0B4
:1015500014F00F88348885D786DF126A24EC07F0F0
:10156000070B136E79C014F00F8834887AD7050EF4
:101570003D607BD7020E3D6478D72D8EC0D273DFDD
:10158000936F10886ED76FDFD8B480517E6F0F8C49
:1015900068D769DF02E12C8864D7866FF50E866113
:1015A000866F2C985ED75FDF946FBE6F5AD75BDF74
:1015B00078390C08D8A059D73E8E785305E03E9E66
:1015C000530E6319D8B43E8478393D18D8B449D73E
:1015D000F5EC0FF078393D6E6FEC13F042D743DF36
:1015E00013E00F0B0A0A06E07839786F0F0B0A0A2E
:1015F00001E03BD7F00E781778390C08D8A035D722
:101600003E8E7867DDD7E0D73E8EDAD772B960B10B
:101610002CD72C8A040E605D226ED890223278C0BE
:1016200023F079C024F07AC025F07BC026F07CC07E
:1016300027F07DC028F0000EEA6E230EE96E000E42
:1016400022C041F0EE24412EFDD7EF6E222A09D7A9
:10165000200E09D0D36AD01CD06804001B0BFCBE3E
:10166000A009FCBC60090001D06FFC6AD0B3D09126
:10167000D0A902D0D167D08B8E6BFF0ECD6F300E0C
:10168000C6EC04F0010F01E08E83F90E8E19806E16
:10169000F90E926E14EC20F0000EC16E860EC06E34
:1016A000F40E816ED0A304D07F0EF16EE80E01D04F
:1016B000080E936E000EBB6E9A0ECD6F280EC6EC10
:1016C00004F01C6EF00E1CAE02D01CACDF0B826E60
:1016D000970E946ED0BB03D080448C6F8C4712EE73
:1016E00000F022EE00F000EE00F0F76A800E7F6E50
:1016F0006F8E976BD0A307D0D26B49EC02F0FF0E30
:10170000F16E080E936E3C6A0D0ECD6F2C0EC6EC7A
:1017100004F03B6ED0AB02D03C6E0AD07C0E8A6ED9
:1017200093EC05F0D880E830FC0BE8B6F8D78A6E69
:10173000ACA295EC05F07D6A00000000CF51D0AB63
:1017400080EC04F0CF6F080ECF65CF6FCF0502D0CD
:101750007D2AA00EAF6E080EA76E250EAC6E900E01
:10176000AB6E2CEC03F08D6B71EC04F0946F79ECA4
:1017700004F0D8B48D8D7CEC04F08A6F84EC04F016
:101780008B6F93EC04F0D8B48D8FB2EC04F0996FAA
:10179000400E9961996FF90EBE6FB6EC04F09A6F26
:1017A000BAEC04F09B6F400E9B619B6FBEEC04F0A3
:1017B0009C6FC2EC04F09D6F400E9D619D6FC50E45
:1017C000D56ED66A2C6A1A6A3E6A606B726BB16B10
:1017D000B26B0FEC05F0000ED0B7910ED0BD920E9B
:1017E000D0BF930ED0B9D1510009D8A466EF03F051
:1017F00092EC03F092EC03F0D0A103D0D28DE20E74
:1018000015D0D29D60EC04F010E1820E98EC03F04C
:1018100092EC03F092EC03F0D00E98EC03F092EC13
:1018200003F02CEC03F04DEF09F0820E98EC03F07E
:1018300092EC03F019A805D0199819AE02D0C80E81
:10184000F5D792EC03F0EAEC02F03EB4E2EC04F0DF
:101850003E94199C2D9E9EAA02D0206A8A983496A6
:10186000B36B3EB06EBE0BD06E50E00B04E171BAAC
:1018700002D071A004D067EC1EF0BEEC1DF02CEC81
:1018800003F01CAE8B9AB80E98EC03F0700E721732
:10189000610E746F61C071F01C901996886B896B32
:1018A000100E89EC05F01CB482B8216A06EC02F037
:1018B0001CBE0FA202D01986A6D42CBE2CAC02D01E
:1018C00015EC0FF08AB804D072951C90886B896B68
:1018D00020BE728520AE72A528D07295882B130E7B
:1018E000886502D072BF09D106EC02F0390E886516
:1018F0001CD01CB088D4892B886B1CBE1CAA15D0A8
:10190000040E1CB8130E8AB889630FD01C801CA665
:101910000CD092EC03F01A0E98EC03F092EC03F06A
:1019200092EC03F03E0EF9EC03F072A1BCD7728387
:10193000610EE96E745D03E171C061F008D0606F03
:10194000416EEF9EEFBCEF9AE92A412EFAD7AF28FD
:10195000416E4132419EA5EC05F09EAA03D0AE50E7
:101960008A1908E0AB50060BD8A4AB98D8A4AB8872
:10197000412EF1D717B417AE03D08A51F9EC03F01A
:10198000AF28416EEAEC02F0412EFCD7199E2CECF8
:1019900003F0738F000EEA6E600EE96E6051D8A4FA
:1019A00072BDABD0416E760E436EE92AEF5095ECD6
:1019B00002F0426E423C08D0729B650EE96072995B
:1019C000670EE960739F426AE9CF44F043C0E9FFC4
:1019D000610E010B03E144A003D005D044A003D065
:1019E0004238EF6E03D04250EF12E92AE9CF43F0BC
:1019F00044C0E9FF412ED9D772BB604D20D060C0F2
:101A000041F0816941A003D04250816F41060F0E21
:101A10003EA00BD097B50DD097B317A003D018B246
:101A20000D0E05D018A205D002D017B802D0416023
:101A300064D04140756F18B01AEC08F060D01AEC11
:101A400008F0020E606559D0410E616356D0540E05
:101A5000626353D0050E606508D0570E636305D0EE
:101A600064514D0AD8B406EF0BF0FC0E776305D035
:101A70006551530AD8B420EF08F0010EF76E030E3B
:101A8000605D416ED8B4020E414E160E416641BEF5
:101A90001DD0F72A414E020E414E400E414E9C0E83
:101AA000414EC20E414EE20E414EEA0E416641BE2B
:101AB0000DD0F72A414E220E414E060E414E140E15
:101AC000414E220E414E220E414E1C0EF66E090072
:101AD000F55012E063630CD00900F55002E0646336
:101AE00008D0F7CFFAFFF76A020EF65C80EF00F03D
:101AF000F62A040EF626EBD7F76A56EF07F03E9863
:101B0000198875C000F076C004F077C005F078C081
:101B100006F079C007F07AC008F07BC009F07CC0FD
:101B20000AF07DC00BF00F9A020E006206D0056627
:101B300004D0044C0F8A0FB80F9A2DAE3EAC2DD0B6
:101B4000C1D902EC02F0CAD902EC02F0116A118C80
:101B5000EAEC02F0816717A61AEF0CF0DAD902EC72
:101B600002F081AF8107EAEC02F0836704D0050E32
:101B7000836F846B856B84AB842B852BFF0E18B62B
:101B80003F0E851504E18307050E8365836F82513F
:101B9000D8B4FF0E8365836FDBD73DC0C4F02D9AA8
:101BA000C6693D524FE0020E3D6403D0050E3D6410
:101BB0003AD0198C60D9199C3E9C18D883D916D874
:101BC0008DD914D8816717A61AEF0CF0986B190EEF
:101BD0003DC041F0414E190E414E190E0FAC02D0DE
:101BE0007E617E51BAD902D83E8CBBD73F6E3F5240
:101BF000D8B4120006003E94F8D92DAE3EAE03D004
:101C000019BE98D01FD0080E3F6209D0020E3D6465
:101C100007D0060E3D6004D0FF0E3F6E01D019AE16
:101C200035EF03F087D03EBCE0D925D93F6E000ADE
:101C300004E12DAE64D71AEF0CF019AEDCD7F5EC49
:101C40000FF078D03E8822EC04F078D825EC04F030
:101C5000010E10AAB2EC05F03D6EC36103D0010E77
:101C60003D6E03D03D04C56F02E1C3C0C5F0020E56
:101C70003D6207D0C40513E18BEC04F0DB0F09E2F1
:101C80000ED0050E2DBA3D620AD09AEC04F0C30FB7
:101C900006E389EC05F0EAEC02F00FA2FCD7986BA2
:101CA000EAD83F6E3F6607D03E9811A61AEF0CF0B7
:101CB00019BE40D024D799D919AE03D0C4C03DF085
:101CC00039D03D50C5191DE039D83D2AC3513D6476
:101CD00002D0010E3D6E2DAA06D0030E3D18F1E094
:101CE000040E3D18EEE0020E3D6204D08BEC04F0D1
:101CF000D6E0CFD7050E3D62D2D79AEC04F0CFE004
:101D0000C8D73E98C63D08D0C4C03DF06FEC13F074
:101D1000020E3F6E35EF03F0C6513D6E198CABD805
:101D2000199C3EACF1D70FAAEAD697B317A01AEFC9
:101D30000CF0E5D61998C80E16EF0CF0050E3D18FC
:101D4000D8B42DBA1200050E456E9DEC04F0FAE0F1
:101D50007F6F216A0F92EAEC02F019BEEBD70FA257
:101D6000FAD7452EF6D7120011843E983486986B28
:101D700035902D98198825EC04F03EA612D0C9D8CC
:101D80003F6EEAEC02F019BE1AEF0CF01FEC03F004
:101D90003F50F5E0080A02E035EF03F0B36BB38380
:101DA000EED73D50C46FD8B43D2A3EAC05D01DD906
:101DB00072D902EC02F024D03EAEFAD73E8822EC73
:101DC00004F0C46707D0B2EC05F03D6E050A030EBF
:101DD000D8B43D6E3D50C36102D0010E3D6E5BD95B
:101DE000000903E1986B320EB8D83F6E7297000A73
:101DF0000AE13EA002D011B206D03E9817BA3E8446
:101E00003E863F6ABED7F1D83D50030AD8B43D2A7A
:101E10003D50040AD8B43D2AC3513D603D6A3D2A75
:101E200019AEDDD7C4C03DF085D72CA803D02C9EB9
:101E30002C98000C22C000F023C001F024C002F056
:101E400025C003F026C004F027C005F006EC02F020
:101E500028C006F029C007F041D806EC02F02CACEF
:101E6000000C86512A60000CC0D892EC03F0050EDD
:101E70003F6E35EF03F03E9611942C9E119E11900B
:101E8000C76BE3D83EAC120017BA3E84000C7E61EB
:101E90007E518F6F11B00AD00FB003D011803E8CED
:101EA00005D03D50C66FC72BC7B7080C8F51F1EC5A
:101EB0000FF072973F6E3F52EDE03EAC12000FAA5A
:101EC0001186000C000EEA6E000EE96EEECF42F0B5
:101ED0000C0EFD0F4260750C05D91200000EEA6E63
:101EE000010EE96E116A118C935110B805D00350A0
:101EF0003EB202D001A40228156E06EC02F018D9F9
:101F00006DEC05F006EC02F02A6A2C9C050E2B6E97
:101F1000000C11BE3EB620D018B83EAC1DD0835187
:101F20001BE0040E846518D083517F6FD89084BB6A
:101F300007D0100E846105D018A67F3705E30CD0BA
:101F40007F33D89018B67F3383517F2705E20F0E79
:101F500083657F2B7F517E657E5197A50CD07E5186
:101F60003EAC3E0E7E617E51416EFF0EB3B7B3B9FB
:101F70004150B3B341507F6F1FEC03F0216A0F92C1
:101F8000109E01D96DEC05F01FEC03F0118E1BA81B
:101F900003D017B2DFEC03F0030E00640F8072B7BA
:101FA0000ED00FA008D01FEC03F0D80E3EB011A247
:101FB000760E98EC03F01FEC03F092EC03F00FB0F8
:101FC00004D02A6A2C9C050E2B6E10AE07D062EC52
:101FD0001EF060B60FEC1FF058EC1EF019AE000CAE
:101FE000010C17B60FAA7287B8D73D66E9EC10F05E
:101FF000B50E3E162C9E2C98976B836B000C3DC043
:1020000041F0414E30D1414E81EF13F0414EAAEFE5
:1020100015F0414E37EF18F0414E37EF18F0414EB2
:1020200006EF19F0414E06EF19F0414E06EF19F098
:10203000414E06EF19F0414E06EF19F0414E06EF02
:1020400019F0414E06EF19F0740C3DC041F0414EBD
:1020500011D1414E88EF13F0414EA7EF15F0414EDC
:1020600034EF18F0414E6FEF18F0414EFCEF18F0CE
:10207000414E56EF1FF0414E61EF1FF0414E6CEFA5
:102080001FF0414E77EF1FF0414E82EF1FF0414E9F
:102090008DEF1FF0740C2D983DC041F0414E11D1D1
:1020A000414EB0EF13F0414E4CEF17F0414E4CEF64
:1020B00017F0414E4CEF17F0414EFEEF18F0414E35
:1020C00059EF1FF0414E64EF1FF0414E6FEF1FF0CC
:1020D000414E7AEF1FF0414E85EF1FF0414E90EFD9
:1020E0001FF0740C3DC041F0414EEED0414EB2EFB6
:1020F00013F0414EBDEF16F0414EDDEF18F0414EAA
:10210000DDEF18F0414EB4EF19F0414EB4EF19F085
:10211000414EB4EF19F0414EB4EF19F0414EB4EF17
:1021200019F0414EB4EF19F0414EB4EF19F0740CB0
:102130003DC041F0070E416411D0415E414E3AEF7F
:102140001AF0414E3AEF1AF0414E3AEF1AF0414E72
:102150003AEF1AF0414E3AEF1AF0740C414ED6D0D5
:10216000414EC8EF13F0414ED3EF16F0414ED3EF7E
:1021700016F0414ED3EF16F0414E3AEF1AF0414EB1
:102180003AEF1AF0740C3DC041F0414E49D1414E36
:102190006AEF14F0414EE9EF16F0414EE9EF16F008
:1021A000414EE9EF16F0414EA2EF1AF0414EA2EF78
:1021B0001AF0414EA2EF1AF0414EA2EF1AF0414E32
:1021C000A2EF1AF0414EA2EF1AF0414EA2EF1AF020
:1021D000740C3DC041F0414E05EF13F0414E8CEFC1
:1021E00015F0414E4CEF17F0414E4CEF17F0414EB9
:1021F0004CEF17F0414EB2EF1DF0414EB2EF1DF023
:10220000414EB2EF1DF0414EB2EF1DF0414EB2EF24
:102210001DF0414EB2EF1DF0414EB2EF1DF0740CB7
:102220003DC041F04166414E1200414E1200414E08
:102230001200414E1200414E1200414E01EF19F0C2
:10224000414E5CEF1FF0414E67EF1FF0414E72EFC1
:102250001FF0414E7DEF1FF0414E88EF1FF0414EC1
:1022600093EF1FF0740C610E126E6A0E136E945190
:10227000146E120026D819BE010CEAEC02F03C667E
:10228000FAD70FA833EC11F019AC02D03E8C000C39
:10229000010E046E056A020E006E62EC0FF06DEC2A
:1022A00005F06EEC0FF06DEC05F0190E7E617E51BD
:1022B0000FAC190EF1EC0FF072976DEC05F0190EE2
:1022C000E6D589948B9610D2FF0E406E610E3EA823
:1022D0001250EE6E27EC13F06A0E3EA81350EE6E0D
:1022E00027EC13F094513EA81450EE6E27EC13F037
:1022F000EE5027EC13F0EAEC02F0422EF9D7401C26
:10230000EF6E040E002619BE010C000C7A0E89EC4B
:1023100005F0040E926F0FB2040C000EEA6E010E6F
:10232000E96E82B40CD0090E416EEAEC02F00FB2F5
:10233000040C18AC416A414E050C82A4F6D73A0E43
:10234000416E82A4F0D7412EFCD719BE010C100EAD
:10235000416E414E02D082B4FCD789848B868A9E1E
:102360001D6A080EAEEC05F082A403D089948B960A
:10237000030C140EADEC05F089948B960000A0ECD4
:1023800005F00050426EEAEC02F0A3EC05F0A1EC7F
:1023900005F0EE50ECEC11F03F6E3F6603D0422E9C
:1023A000F6D7000C8F6B906B446A8250040B8F1928
:1023B00012E08F1B903D902B442EF7D7050E9061B5
:1023C00002D0924F050C446AA7EC05F019BE010C2F
:1023D000442EFAD7A0D7F0D789848B86436E080E97
:1023E000446EEAEC02F04336D8A009D089948B966B
:1023F000EAEC02F082A4090CA3EC05F009D0EAECA7
:1024000002F0A2EC05F0000089948B96A4EC05F094
:10241000444E000CEAEC02F089848B860000E1D780
:10242000800E1B6EFF0E406E000EEA6E010EE96E0E
:102430000F9482A43ED082B89EBA198E19BE010CA8
:102440000FB262D082A435D0D6BE1A681A66D6BE44
:1024500022D082A42ED02B2E03D0050E2B6E2A2A3A
:10246000865182A426D02A602C8C212A7F5121609B
:102470000F821A9E82A41DD01D2A1DB68A8E1E2A86
:102480001EB68A8C82A415D01F2A1FB68A8A202ADB
:1024900020B68A881A6A82A40CD0E150D9629EA81C
:1024A000C8D782A406D01F6A8A9ADE50DA90AD6E31
:1024B000C0D786512A602C8C1E6A8A9C00D0110ECF
:1024C000416E82B4B6D7412EFCD70B0E416E82B45A
:1024D00020D0412EFCD7EAEC02F0EAEC02F082B404
:1024E000A8D718AC07D03EA6050C560E98EC03F002
:1024F00092EC03F082B49DD71E6AEAEC02F019BE9A
:10250000010C3EA60FA2F6D73EA6080C216A0F9238
:1025100087D72128826F9FEC05F0EAEC02F0006A71
:1025200086D8A7EC02F09FEC05F072D89DEC05F080
:102530007ED8D7EC03F06CD89DEC05F078D8D7ECBA
:1025400003F066D89DEC05F072D8D7EC03F060D8A4
:102550009DEC05F06CD8EAEC02F09FEC05F058D841
:102560009DEC05F064D8EAEC02F09FEC05F050D841
:102570009DEC05F05CD8EAEC02F09FEC05F048D841
:102580009DEC05F054D8EAEC02F0002A1B880F9469
:102590000D0EE9600F840F8617B806D00B0E11B42C
:1025A0000C0E00620F9606D019AE0F960052D8A4FA
:1025B0000F960000A4EC05F02BD8A2EC05F000006B
:1025C0000F90C40E40620F8071510FA4EE6E0E6E1C
:1025D0000FA6A6D7EAEC02F0EAEC02F01BBE20D769
:1025E00011B4000C10B20ED00FB0000C01B6000CEC
:1025F000EAEC02F0EAEC02F0945110A41450ECEC76
:1026000011F0000C10B0F4D7000C89948B966CD0AC
:10261000718F714782A471911D0ED890403604E2EB
:1026200071B1401A0000000C71A1401A000C050E97
:10263000416E82A4000C414E03D082A4000CF9D755
:10264000060000D00066EEEF12F010EF12F0446EBC
:102650001D0ED890403603E244BE401A03D044AE6B
:10266000401AD890403603E244BC401A03D044AC30
:10267000401AD890403603E244BA401A03D044AA24
:10268000401AD890403603E244B8401A03D044A818
:10269000401AD890403603E244B6401A03D044A60C
:1026A000401AD890403603E244B4401A03D044A400
:1026B000401AD890403603E244B2401A03D044A2F4
:1026C000401AD890403603E244B0401A03D044A0E8
:1026D000401A00000F90C40E40620F801200020EDC
:1026E0003D6202D0020E01D0000E8E1904E189A2D3
:1026F000000C899203D089B2000C89823B503C6E59
:10270000000C680E126E6A0E136E9451146E120055
:1027100027D819BE010CEAEC02F03C66FAD70FA8E4
:1027200081EC13F019AC02D03E8C000C010E046E4B
:10273000056A020E006E62EC0FF06DEC05F06EECB7
:102740000FF06DEC05F0190E7E617E510FAC190E85
:10275000F1EC0FF072976DEC05F0190E47EF0FF0EA
:102760008994C0D7FF0E406E680E3EA81250EE6EE0
:1027700027EC13F06A0E3EA81350EE6E27EC13F010
:1027800094513EA81450EE6E27EC13F078EF11F040
:102790007A0E89EC05F0040E926F0FB2040C000E55
:1027A000EA6E010EE96E82A013D0416AEAEC02F0F3
:1027B0000FB2040C82A00CD0EAEC02F018AC416A13
:1027C000414E050C82A004D0EAEC02F082B0EED7B4
:1027D000DF0E416E82B0E9D7412EFCD719BE010C45
:1027E000100E416E414E02D082A0FCD789848A9E91
:1027F0001D6AA9EC05F082B002D08994030C170E73
:10280000416EEAEC02F0000000000000412EF9D712
:102810000050426EEE503BEC14F03F6E3F660FD01E
:10282000080E416EEAEC02F00000412EFBD7A1EC4D
:1028300005F0422EEFD7A4EC05F08994000C8F69C7
:10284000916B446AEAEC02F08250010B8F1912E09E
:102850008F1B913D912B442EF5D7050E916102D02F
:10286000924F050C446AA7EC05F019BE010C442EEA
:10287000FAD793D7F0D78994436E040E446E0000C4
:10288000A8EC05F082B0090CA8EC05F04336D8A0FE
:1028900009D0A8EC05F082B0090CA8EC05F0A0EC7A
:1028A00005F00000000089844336D8B007D0A8ECBA
:1028B00005F0A8EC05F09EEC05F00000444E000C7D
:1028C000A8EC05F0A8EC05F0A4EC05F00000899454
:1028D0000000D5D7800E1B6EFF0E406E000EEA6E14
:1028E000010EE96EEAEC02F00FB233D019BE010C12
:1028F00082A0F8D7820E416E8A9C1E6A82A0F2D70F
:10290000412EFCD73D0E96EC15F0000927E0416AF8
:1029100082A0E8D7EAEC02F082A0E4D7EAEC02F069
:1029200082A0E0D7EAEC02F0412EF2D718AC07D033
:102930003EA6050C560E98EC03F092EC03F082A034
:10294000D1D71E6AEAEC02F019BE010C3EA60FA216
:10295000F6D73EA6080C216A0F92BCD72128826FB9
:10296000006A716BAAEC05F0A3EC05F0719F9EEC78
:1029700005F09FEC05F08EEC15F0000906E08EECFA
:1029800015F00009D8A48BD0718F718DA7EC02F0DF
:10299000AAEC05F09FEC05F095EC15F0000906E0B7
:1029A00095EC15F00009D8A4A6D0719D719BD7ECC9
:1029B00003F0D7EC03F09FEC05F0A0EC05F08EECF3
:1029C00015F0000906E08EEC15F00009D8A498D0A7
:1029D000718B7189D7EC03F0AAEC05F095EC15F03A
:1029E000000906E095EC15F00009D8A48CD0719987
:1029F0007197A9EC05F09FEC05F08EEC15F000093D
:102A000006E08EEC15F00009D8A47ED071877185A0
:102A1000A9EC05F09FEC05F095EC15F0000906E037
:102A200095EC15F00009D8A470D071957193A9ECBC
:102A300005F09FEC05F08EEC15F0000906E08EEC39
:102A400015F00009D8A462D071837181A9EC05F05A
:102A50009FEC05F095EC15F0000906E095EC15F0FB
:102A60000009D8A454D071919CEC15F00F8617B8CA
:102A700006D00B0E11B40C0E00620F9606D019AEE4
:102A80000F960052D8A40F96000000D00FA66ED764
:102A9000150E416EEAEC02F0412EFCD700001BBE81
:102AA00019D711B4000C10B223D00FB0000C01B62E
:102AB000000C040E416E00D0EAEC02F0A4EC05F02C
:102AC000412EFAD78984090E416EEAEC02F0412EBC
:102AD000FCD7A2EC05F0945110A414503BEC14F078
:102AE000A8EC05F0A8EC05F0A4EC05F08994000C26
:102AF00010B0DFD7000C719DD7EC03F0D7EC03F0DA
:102B0000719BD7EC03F071997197719571937191E5
:102B10009CEC15F00F80C3D705EF13F0340E416E17
:102B200082B0000C412EFCD7FF0C340E416E82A007
:102B3000000C412EFCD7FF0C002A1B880D0EE95C0F
:102B40007151D8A0EE6E0E6E27EC13F0120019BC76
:102B5000DCD038D00FB806D0680E126E6A0E136E35
:102B60009451146E2CBA1200060E226E680E236E5B
:102B7000246E020E2264120024C025F06A0E246E18
:102B80002526030E2264120025C026F09451256EDE
:102B90002626040E2264120026C027F0010E266E9F
:102BA0002726050E2264120027C028F0000E276E8B
:102BB0002826060E2264120028C029F0000E286E76
:102BC00029261200600E2DAE3EAE98EC03F08D91DA
:102BD0004B0EB8EC17F06DEC05F019BE010CBF51AF
:102BE0000E6E016E006A002A090E416E14D02DAEE1
:102BF0003EAE03D09EEC05F00BD0414C06D0040E47
:102C0000411803E0070E411803E12E0EF9EC03F022
:102C10000E32D8B00DD08A9E030E8A121D6A9DEC2A
:102C200005F09DEC05F082A207D0FC0E8A16030C7D
:102C3000FC0E8A1629EC03F0640E436E426AEAEC3D
:102C400002F000D0422E01D0432EF9D7AB0E426ED7
:102C500029EC03F0422EFCD719AE03D0FC0E8A16E5
:102C6000010C412EC4D7EAEC02F0FC0E8A16640E69
:102C7000426EEAEC02F0412E01D0422EFAD72D8AA4
:102C80007287E60E50EC17F072976DEC05F07151FB
:102C9000026E002A550E021803E0FF0E6DEC05F0DF
:102CA00072872D0E2DB2870E50EC17F072976DECD7
:102CB00005F07151036EC06F002A72872D0E2DB280
:102CC000870E50EC17F072976DEC05F07151046EA1
:102CD000C16F002A8D81030E3D622ED02DAE2DBC1A
:102CE00009D00350046226D0080E031803E0940EA6
:102CF000036220D060D96DEC05F0040E3D6205D072
:102D00003EA822EC04F0030E3D6EAAEC15F02A6AF0
:102D10002C9C050E2B6E3E8C2C8E19BC000C118643
:102D20002DBE02D03EBE000CB40E98EC03F092EC27
:102D300003F0000C3EAEFF0C2DAE2DBC03D08F0E69
:102D400004620FD038D96DEC05F0030E3D6205D05A
:102D50003EA822EC04F0040E3D6E37EC18F03E82E3
:102D6000D6D73EAEFF0C03500462FF0C080E0318CA
:102D7000C1E0940E0362FF0CBDD7680E3EA812504E
:102D8000016E6A0E3EA81350026E94513EA8145074
:102D9000036E030E4226000EEE24422EFDD7EF6E88
:102DA000040E0026000C06EC02F0E1D86DEC05F0F4
:102DB00000C044F0EE501FD96DEC05F0444E000CFD
:102DC000F20E436E06EC02F006EC02F0432EFAD748
:102DD000F1D7800E1B6E406A000EEA6E010EE96E9E
:102DE00082B20AD0EAEC02F03EB602D00FB2080C72
:102DF00019BE010C82A2F6D711B42DB80ED0C25163
:102E0000446E436AEAEC02F019BE010C82A2EAD7D2
:102E1000432E01D0442EF6D72D88EAEC02F03EB6C0
:102E200002D00FB2080C19BE010C82B2F6D7006AAC
:102E30002128826F34D83F6E080A2BE0002A1B88B5
:102E40000F90715140620F8040260D0EE95C715168
:102E5000D8A0EE6E0E6E040E006413D0030E3D6219
:102E600009D00B0E11B40C0E17A80DD019BE0066B8
:102E70000CD00FD03F0E011401E10428040F0018FC
:102E800008E00F8002D0001804E03F50FF0AD2E1B2
:102E90000F801BBE9ED7000C8A908A92000CC20540
:102EA000446E82A211D0436A82A20CD0EAEC02F0F6
:102EB00082A208D082A206D0432E01D0442EF4D79D
:102EC0002D88080C9EEC05F08A9C1E6AA7EC02F087
:102ED000030E3D640BD017B20AD0040E006209D075
:102EE0003F0E011408E1800E1B6E07D000D00000D9
:102EF00000D0000000D0000000D00000EAEC02F09A
:102F0000010E2DA208D0A1EC05F02DA004D00000E8
:102F10009DEC05F0080E416EEAEC02F0412EFCD764
:102F2000090E416E060E426E03D07133050E426EDD
:102F3000D7EC03F0EAEC02F0422EFAD79DEC05F054
:102F40002DA20AD09CEC05F02DA00ED0100E456EDF
:102F5000EAEC02F0452EFCD7D88082A2D890412E10
:102F6000E4D7D8B0000CFF0C9EEC05F0F5D70F0E9F
:102F7000436EFF0E89EC05F0199A82A210D043C06F
:102F800044F006EC02F00FB2040C82A208D019AA99
:102F9000F8D7199A442EF5D706EC02F0000C446AD3
:102FA00006EC02F00FB2040C82B2E9D7442EF8D737
:102FB00006EC02F0050C080E416E199AEAEC02F0DC
:102FC00019AAFCD7199A412EF9D7041C056E002ABC
:102FD00012D87287190E64DF72973F6E000903E002
:102FE0002DBC000C12007151066E002A711DBF1914
:102FF000D8A4FF0C000C0E6E8A808A9E1D6A06EC17
:1030000002F082A202D08A90030C090E436E05D012
:10301000000006EC02F0A2EC05F02DA207D0A4EC13
:1030200005F0050E2DA005D00B0E03D006EC02F026
:10303000040E456EA4EC05F006EC02F0EAEC02F09A
:10304000452EFAD7434E08D00E32D8B003D0000038
:103050008A80DED78A90DCD7000000D08A9006EC08
:1030600002F006EC02F0000C19BC77D6ABD50FB815
:1030700006D0CF0E126E330E136E9451146E2CBA0E
:103080001200050E226EC10E236E246E020E226403
:10309000120024C025F0330E246E2526030E226470
:1030A000120025C026F09451256E2626040E2264B7
:1030B000120026C027F03E0E266E2726050E22643B
:1030C000120027C028F0000E276E2826060E226464
:1030D000120028C029F0000E286E2926120037ECB5
:1030E00018F019BC5AD0600E2DAE3EAE98EC03F02D
:1030F0008D91810E046E010E006E62EC0FF06DEC8E
:1031000005F0000EEA6E010EE96E4B0EB8EC17F0FA
:103110006DEC05F019BE010C030E8A128A9E1D6A21
:10312000EAEC02F09DEC05F082A203D0FC0E8A16B8
:10313000030C39D8A9EC05F0A3EC05F0FC0E8A16B7
:1031400032D89DEC05F0A8EC05F0116A118C03C093
:1031500015F0D8EC16F06DEC05F07A0E7287ADEC38
:103160000FF072976DEC05F0070E001807E105C02F
:10317000C0F006C0C1F08D8104500BD0080E0018BD
:1031800002E02DAC0CD006C0C0F007C0C1F08D81AC
:103190000550C10A02E02DAC02D0ADEF16F0C72BEE
:1031A000C7A9DBD7FF0C0A0E426E416A29EC03F077
:1031B000412E01D0422EFAD712003EA80ED0CF0EDB
:1031C000C00B4210016E330E3EA81350026E945194
:1031D0003EA81450036EC9EF16F012503F0B02E0E8
:1031E0001250EED734D9010EE96E00C004F0002A67
:1031F00000C042F01250E6D704D878D002D8ADEF24
:1032000019F0010E966F810EA5EF1EF0B36B349886
:1032100034840FB817D097A507D0EA0E126EFF0EB0
:10322000136EBE51146E0ED037AE06D0126A070E62
:10323000136EDF0E146E06D0DB0E126E330E136E9D
:103240009451146E34BE06D0180E37BE000E97B5DA
:10325000180E2E6E34BC23D037AE1CD09E6B9F6BE5
:10326000070E1314070A11E1DF0E141809E0F00E1F
:103270001414E00A0AE1070EA06FFF0EA16F0FD031
:10328000070EA06FF80EA16F0AD0070EA06FC00E38
:10329000A16F05D09E6B9F6BFF0EA06FA16B34BA20
:1032A000000C37AE1DD0A26BA36B070E1314070AD8
:1032B00012E1DF0E14180AE0F00E1414E00A0BE11C
:1032C0001350A46F1450A56FA587000C070EA46FB0
:1032D000E80EA56F000C1350A46F1450A56F000CDE
:1032E000A26BA36B1450A46FA56B000CC5EC1DF072
:1032F0006DEC05F08BDF41EC1EF06DEC05F019ACC8
:1033000002D03E8C000C97A507D0EE0E056EFE0E87
:10331000066E076A0F9A0BD0020E056E010E066E3E
:10332000076A9551086E096E0A6E0B6E0C6E030EDD
:10333000006E366E35D86DEC05F0BAD86DEC05F040
:10334000190E7E617E510FAC190EF1EC0FF07297E1
:103350006DEC05F0190E47EF0FF0C5EC1DF06DECAC
:1033600005F054DF3486000C4250366E02E1368C94
:1033700017D06DD8050E0024E96E0D0EE96003D05C
:1033800095C0EEFFFBD797B50BD097B317A003D02E
:103390005ED8005068D818A203D059D8165063D808
:1033A000040E00263EB809D02EC001F012C002F073
:1033B00013C003F014C004F0000C67EC1EF097B5C6
:1033C00018D037AE25D0016A026A070E036EDF0EF1
:1033D000046E2F6A306A070E316EF80E326EFEDB15
:1033E00032EC1EF02F6A306A070E316EE80E326E34
:1033F0002AD0180E016EEA0E026EFF0E036EBE5149
:10340000046E386AFE0E396EEE0E3A6E22EF1FF031
:10341000180E016EDB0E026E330E036E9451046EB5
:10342000000E2F6E000E306EFF0E316E000E326EEB
:10343000D5DB32EC1EF0000E2F6E000E306E945174
:10344000316E000E326ECADBE8DB3484000C040EF1
:10345000E96E080E426EEE50EFCF41F0EE6E415035
:10346000422EFAD71200056E080E00601200002AE4
:10347000362A120034B8CBDE070E97B5006212D0A0
:1034800035B404D0075005C007F0056E05C03AF00A
:1034900006C039F007C038F0359022EC1FF06DEC13
:1034A00005F006D0358034A403D0EBDB6DEC05F0DD
:1034B00001C02FF002C030F003C031F004C032F080
:1034C0008DDB97A537AE30866E50E00B05E171BA03
:1034D00002D071A003D0FBDB000EFADB62EC1EF021
:1034E00060B60FEC1FF036BC03D0080E35AA37BC0F
:1034F0003650656E040F006E009C2FC061FF30C017
:1035000062FF31C063FF32C064FF05C066FF06C0C2
:1035100067FF07C068FF08C069FF09C06AFF0AC0EB
:103520006BFF0BC06CFF0CC06DFFBEEC1DF0A46AFE
:103530008A9E1D6A62EC1EF0080E606E0FEC1FF092
:1035400058EF1EF0B38B6E50E00B03E1B39B35A038
:10355000119CB3A30FD0700E11140BE11FEC03F0FC
:1035600067EC1EF00E013EEC1FF0B3BB02D0000E64
:10357000AFDBB36B1B983492779A1FEC03F0985330
:10358000D8B435926E50E00B10E034A606D03496D5
:103590003EDEE4DB6DEC05F007D0600E6E18E00B4C
:1035A00004E0600E95DBEADAA46A82DBEAEC02F062
:1035B0000FB21FD019BE010C71B0779A34B204D08B
:1035C00060AE02D034821BD0349277DB60BE17D05D
:1035D00077BE3EBCEAD7983D982B779E1FEC03F050
:1035E0003EA647D0400E9865E0D771DB986B982BCC
:1035F000D8D7B3A13EA6080C216A0F92D6D761CFC7
:1036000001F062CF02F063CF03F064CF04F066CF25
:1036100005F067CF06F068CF07F069CF08F06ACFF2
:1036200009F06BCF0AF06CCF0BF06DCF0CF065CFCB
:1036300036F0A4CF44F0609EA46A8A9C1E6A1FECF8
:1036400003F036DB2128826F080E36B6366E0F90F7
:10365000119271507F0B04E144BE02D0986B23D0CD
:10366000716A0F801182983D982B3EBC1CD03EB6EB
:1036700004D0050E986599D7BCD771B003D0400E21
:10368000986506D024DB986B982B600E21DB76DAE8
:1036900035B28BD7358244BE06D06C0E98EC03F061
:1036A00092EC03F082D7349036BC34800F0E36167D
:1036B000D8B434801FEC03F034A004D097A518A22E
:1036C00081D073D797B57AD118A203D094510562EF
:1036D0006CD7055018B20650456E97A373D018BE2C
:1036E00011B470D04550F00B100A6CE1080E366032
:1036F00009D035BA02D033BE65D0010E18B2020E21
:10370000366460D04550100A05E1065018B20750E3
:10371000060858E2A62D0CD0A7C02FF0A8C030F0A4
:10372000A9C031F0AAC032F01FEC03F057DA13D071
:1037300001C02FF002C030F003C031F004C032F0FD
:103740003098A66708D037AE02D02F9004D003C0BF
:1037500032F004C031F01FEC03F0309637AE308603
:10376000B1DA60B65CDB080E35AA37BC030E656EB5
:103770002FC061FF30C062FF31C063FF32C064FF01
:10378000300E666E676A686A9551696E6A6E6B6E16
:103790006C6E6D6EA65310E0B05135AA37BC656EE5
:1037A000ABC066FFACC067FFADC068FFAEC069FFCD
:1037B000AFC06AFF1FEC03F0080E606E108E78DA5F
:1037C00001D0B3830ADB1FEC03F0040E3624006E35
:1037D000000EEA6E060E97A518A2050EE96E97A1D7
:1037E00017A006D034B0E1D697B324D097B58ED0C9
:1037F00072B7000C17B2BBD834A00ED0520EF9EC41
:1038000003F01FEC03F0540EF9EC03F0520EF9EC48
:1038100003F017EC04F0000C080E36643650050F68
:10382000416E1FEC03F04150E960000CEE50D5EC06
:1038300003F0F7D7455061E0F00B426E02E145B668
:1038400054D03F0852E3100E426205D0020E18B267
:10385000030E36644AD035AA33AE03D0080E366262
:1038600044D072B7000C17A20AD081D81FEC03F025
:103870004528425237E0300E4262CED732D04266FF
:1038800003D0EE5045282ED01FEC03F0200E4262EC
:1038900008D0EE5089EC03F01AEC04F017EC04F0B9
:1038A000BBD7100E42620ED0EE508EEC03F01FEC30
:1038B00003F0EE50D5EC03F092EC03F01FEC03F0B4
:1038C000300EEAD7460EF9EC03F0430E1AEC04F082
:1038D0001FEC03F017EC04F0EE508EEC03F017EC45
:1038E00004F0030E18B2010F98D73EB609D03EACD3
:1038F0003EA85BD60F807287000C3EA6F8D733BC7B
:103900000F8017B234D81FEC03F086D772B7000CC3
:1039100017A21ED043B602D02CD87ED70130426EFB
:103920004232429642508EEC03F01FEC03F017EC4B
:1039300004F0000E01B0010E8EEC03F002388EECA4
:1039400003F01FEC03F002508EEC03F01ED864D796
:10395000B3A762D705388EEC03F01FEC03F0EE50EE
:103960008EEC03F090EC03F017EC04F055D743B65F
:1039700004D003508EEC03F00BD00150D5EC03F0D3
:103980001FEC03F00250D5EC03F00350D5EC03F02C
:103990001FEC03F00450D5EC03F018AA07D01FEC7D
:1039A00003F036508EEC03F017EC04F097A518A244
:1039B00012001FEC03F09451D5EF03F01FEC03F05D
:1039C0000238300BB46F0244C10BB41301440E0B28
:1039D000B413B43B700E1114D8A4F3D635B0F1D69D
:1039E0003950B419D8B4EDD6080E3662DED51FECC6
:1039F00003F0E80EB4630AD03A500A62D6D53950C3
:103A00000B62D3D538500C62D0D5DBD6EC0EB46344
:103A10005ED03A500A62C9D539500B62C6D53850CB
:103A20000C62C3D50950BB6F100E051806E0200EBE
:103A30000562BBD5B389FF0EBB6FB38704C0B5F079
:103A400006C0B6F007C0B7F00850B86FBA6FB96BD0
:103A5000B92BBC6BBD6B100EBB61BB6F0850BB615B
:103A6000BB6FB38B6E50E00BD8B4B39B1FEC03F06D
:103A70002ED90E01FE69FF694B0EE96FED6FF16FF4
:103A8000F56F0350EA6FEE6FF26FF66F0450EB6F55
:103A9000EF6FF36FF76F0001B381600EB3AB000EF1
:103AA00017D917A00CD0B7518EEC03F01FEC03F020
:103AB000B651D5EC03F01FEC03F092EC03F0B3A980
:103AC00011B473D594EC1DF06DEC05F06ED5EB0ED2
:103AD000B4636BD5B3A911B4B385BC2BBD2B1FEC5C
:103AE00003F0B3A504D0B851BC61B3836BD6BD510C
:103AF000BB6368D6B927BA5FBA670ED0B383E2D882
:103B000060B68DD9130E666EB651676EB751686E8A
:103B1000B851696E13D856D6BD6BBA51BB61BB6F35
:103B200003D86DEC05F04ED6CDD860B678D9110E1D
:103B3000666EBBC067FFB9C068FF69686A683AC053
:103B40006BFF39C06CFF38C06DFFE70E616E680E09
:103B5000626EB5C063FF14C064FF080E656E1FEC93
:103B600003F0E6D46F88300E6E18E00BD8A4AFD8FF
:103B70008A843E903496B16BB26B000C9ED8609EE6
:103B800058EC1EF0609E716A000C9651426E416ABC
:103B900033B681B604D0414E422EFBD7060C97D8DF
:103BA000A36A200E706E00EF20F00000FFFFFFFF01
:103BB000FFFFFFFFFFFFFFFFFFFFFFFFFFFFFFFF15
:103BC000FFFF3E807AD8000E606E72D8040E606EE1
:103BD000000C37AA03D034AC34BA1CD037AE0CD0AA
:103BE00032363136323631361F0E31142F6EFC0E1E
:103BF0003214306E316A326A030E3014416E303640
:103C00002F3630362F3630362F36E00E3014411036
:103C1000306E000C35B8F0D7E3D70E012F50E06FAF
:103C2000E46FE86FEC6FF06FF46F308637AE37BA41
:103C300030963050E56FED6FF56F37BA0809E16FD8
:103C4000E96FF16F3150E26FE66FEA6FEE6FF26F7E
:103C5000F66F3250E36FE76FEB6FEF6FF36FF76F55
:103C60000001000C0E012F50F86FFC6F3050F96FFF
:103C7000FD6F3150FA6FFE6F3250FB6FFF6F000126
:103C8000000C25D89EC02FF09FC030F0A0C031F0AE
:103C9000A1C032F09EDFE6DFA2C02FF0A3C030F05B
:103CA000A4C031F0A5C032F094DFB7DF3494000C2B
:103CB0006F50E10B00096F6E000C6F50E10B0A09A9
:103CC0006F6E000C6F50E10B08096F6E000C800ED8
:103CD000436E6E18E00BD8B4000C42CEB1F041CE6A
:103CE000B2F06E50E00B600A02E1000E03D84350C0
:103CF00001D8000C6F6E9645426E416AEAEC02F004
:103D00006E506F18E00BD8B4000C414E422EF6D71F
:103D100006008A84300E6F6E9645600F426EEAECA4
:103D200002F0300E6E18E00B07E0414E422EF7D73E
:103D3000D28F940ED16FFF0081A4FAD73E903496B3
:103D4000F8EC0FF0FC660600060C376E070B010F4F
:103D5000976B978F9747FF0FFDE11200B8DF34ACE8
:103D600034BA19D097A507D0700E111404E16AD89F
:103D70006DEC05F02FD02F6A306A316A326AFF0E7F
:103D800011BC316E11BA326E24DF6CDF2F6A306ADB
:103D9000316A326A17D09EC02FF09FC030F0A0C0A9
:103DA00031F0A1C032F0FF0E11BC316E11BA326E8B
:103DB00010DF58DFA2C02FF0A3C030F0A4C031F054
:103DC000A5C032F0155011BC316E11BA326E01DF50
:103DD00024DF3484600E7CDFD1D6436A0B0E0214DC
:103DE000416E01320232013A023A0F0E0216F00E13
:103DF00001140212070E011641B607D001C003F0EC
:103E000002C004F0016A026A000CD8900236013642
:103E1000023601364150030B02124368000C9645EE
:103E20009625416E426AEAEC02F060A6000C71B081
:103E300003D0424E412EF7D76096779A58EC1EF089
:103E40000600060C44DFB36B348438C02FF039C051
:103E500030F0FCEC1DF00E012F50E06FE46F30509D
:103E60000809E16FE56FF00E396005D0FF0EE26FD3
:103E70001450E66F03D03A50E26FE66F0F0EF86F02
:103E8000FC6FE30EF96FFD6FFA69FE6BFB6BFF6B66
:103E9000070EE86FEC6FF06FF46F680EE96FED6F6F
:103EA00011A4480EF16FF56F0001000C05D876EFF4
:103EB00019F002D8ADEF19F0010E966F010EA5EFC3
:103EC0001EF005D876EF19F002D8ADEF19F0020E0A
:103ED000966F810EA5EF1EF005D876EF19F002D887
:103EE000ADEF19F0020E966F010EA5EF1EF005D88A
:103EF00076EF19F002D8ADEF19F099C096F0420EA6
:103F0000A5EF1EF005D876EF19F002D8ADEF19F045
:103F10009BC096F09A51A5EF1EF005D876EF19F0E8
:103F200002D8ADEF19F09DC096F09C51A5EF1EF0A0
:103F30000000FFFFFFFFFFFFFFFFFFFFFFFFFFFF8F
:103F4000FFFFFFFFFFFFFFFFFFFFFFFFFFFFFFFF81
:103F5000FFFFFFFFFFFFFFFFFFFFFFFFFFFFFFFF71
:103F6000FFFFFFFFFFFFFFFFFFFFFFFFFFFFFFFF61
:103F7000FFFFFFFFFFFFFFFFFFFFFFFFFFFFFFFF51
:103F8000FFFFFFFFFFFFFFFFFFFFFFFFFFFFFFFF41
:103F9000FFFFFFFFFFFFFFFFFFFFFFFFFFFFFFFF31
:103FA000FFFFFFFFFFFFFFFFFFFFFFFFFFFFFFFF21
:103FB000FFFFFFFFFFFFFFFFFFFFFFFFFFFFFFFF11
:103FC000FFFFFFFFFFFFFFFFFFFFFFFFFFFFFFFF01
:103FD000FFFFFFFFFFFFFFFFFFFFFFFFFFFFFFFFF1
:103FE000FFFFFFFFFFFFFFFFFFFFFFFFFFFFFFFFE1
:103FF000FFFFFFFFFFFFFFFFFFFFFFFFFFFFFFFFD1
:10400000960597A58009E8CF43FEBC0E97A5BB0E89
:104010000E01446F37B844990001010E97A5020EB6
:10402000E8CF45FEE1EF1DF0010EE8CF5DFF000E89
:10403000E8CF5CFF000EC26ECFEC04F01200C4AEFD
:1040400002D0C46AC36AC432C332C432C332030E5C
:10405000C416000C7D5003D8AF5001D8FFD79EA8DE
:10406000FED7AD6E1200FFFFFFFFFFFFFFFFFFFF58
:10407000FFFFFFFFFFFFFFFFFFFFFFFFFFFFFFFF50
:10408000FFFFFFFFFFFFFFFFFFFFFFFFFFFFFFFF40
:10409000FFFFFFFFFFFFFFFFFFFFFFFFFFFFFFFF30
:1040A000FFFFFFFFFFFFFFFFFFFFFFFFFFFFFFFF20
:020000040030CA
:0E0000001413461E008981000FC00FE00F4050
:0200000400F00A
:10000000FF000000000000FF06AE026AFFFFFFFFD6
:10001000FFFF32FF01FFFFFFF1FF09FFFFFF00FFBE
:100020000AFFFFFF68FF0DFF9AFFFFFF0DFF00FFB4
:10003000FFFF32FFFFFF0AFFFFFF92FF00FF28FFD5
:10004000FFFFFFFFFFFFFFFFFFFFFFFFFFFFFFFFC0
:10005000FFFFFFFF00FF00FF00FFFFFFFFFFFFFFAD
:1000600038FF02FFE0FF04FF80FF0AFF00000000EE
:10007000FFFFFFFFFFFFFFFFFFFFFFFFFF00FFFF8F
:10008000FFFFFFFFFFFFFFFFFFFFFFFFFFFFFFFF80
:10009000FFFFFFFFFFFFFFFFFFFFFFFFFFFFFFFF70
:1000A000FFFFFFFFFFFFFFFFFFFFFFFFFFFFFFFF60
:1000B000FFFFFFFFFFFFFFFFFFFFFFFFFFFFFFFF50
:020000040020DA
:00000001FF
